{
  "contractName": "Insurance",
  "abi": [
    {
      "constant": true,
      "inputs": [],
      "name": "getBalance",
      "outputs": [
        {
          "name": "",
          "type": "uint256"
        }
      ],
      "payable": false,
      "stateMutability": "view",
      "type": "function"
    },
    {
      "constant": true,
      "inputs": [
        {
          "name": "",
          "type": "uint256"
        }
      ],
      "name": "flights",
      "outputs": [
        {
          "name": "isProcessed",
          "type": "bool"
        },
        {
          "name": "arrivalDateTime",
          "type": "bytes32"
        },
        {
          "name": "tripData",
          "type": "bytes32"
        },
        {
          "name": "userAddress",
          "type": "address"
        },
        {
          "name": "state",
          "type": "uint8"
        }
      ],
      "payable": false,
      "stateMutability": "view",
      "type": "function"
    },
    {
      "constant": false,
      "inputs": [],
      "name": "kill",
      "outputs": [],
      "payable": false,
      "stateMutability": "nonpayable",
      "type": "function"
    },
    {
      "constant": false,
      "inputs": [
        {
          "name": "id",
          "type": "uint256"
        }
      ],
      "name": "payInsurance",
      "outputs": [],
      "payable": false,
      "stateMutability": "nonpayable",
      "type": "function"
    },
    {
      "constant": false,
      "inputs": [
        {
          "name": "id",
          "type": "uint256"
        },
        {
          "name": "date",
          "type": "bytes32"
        },
        {
          "name": "tripData",
          "type": "bytes32"
        }
      ],
      "name": "addInsurance",
      "outputs": [],
      "payable": true,
      "stateMutability": "payable",
      "type": "function"
    },
    {
      "constant": true,
      "inputs": [
        {
          "name": "id",
          "type": "uint256"
        }
      ],
      "name": "isProcessed",
      "outputs": [
        {
          "name": "",
          "type": "bool"
        }
      ],
      "payable": false,
      "stateMutability": "view",
      "type": "function"
    },
    {
      "constant": true,
      "inputs": [
        {
          "name": "id",
          "type": "uint256"
        }
      ],
      "name": "getArrivalDate",
      "outputs": [
        {
          "name": "",
          "type": "bytes32"
        }
      ],
      "payable": false,
      "stateMutability": "view",
      "type": "function"
    },
    {
      "inputs": [],
      "payable": false,
      "stateMutability": "nonpayable",
      "type": "constructor"
    }
  ],
  "bytecode": "0x6060604052341561000f57600080fd5b33600160006101000a81548173ffffffffffffffffffffffffffffffffffffffff021916908373ffffffffffffffffffffffffffffffffffffffff1602179055506106fa8061005f6000396000f300606060405260043610610083576000357c0100000000000000000000000000000000000000000000000000000000900463ffffffff16806312065fe01461008857806315ccf70f146100b157806341c0e1b514610152578063508e264e146101675780636caf7a5c1461018a578063bfe7edd7146101bc578063c823d9b9146101f7575b600080fd5b341561009357600080fd5b61009b610236565b6040518082815260200191505060405180910390f35b34156100bc57600080fd5b6100d26004808035906020019091905050610255565b6040518086151515158152602001856000191660001916815260200184600019166000191681526020018373ffffffffffffffffffffffffffffffffffffffff1673ffffffffffffffffffffffffffffffffffffffff16815260200182600281111561013a57fe5b60ff1681526020019550505050505060405180910390f35b341561015d57600080fd5b6101656102c5565b005b341561017257600080fd5b6101886004808035906020019091905050610358565b005b6101ba600480803590602001909190803560001916906020019091908035600019169060200190919050506104f8565b005b34156101c757600080fd5b6101dd6004808035906020019091905050610683565b604051808215151515815260200191505060405180910390f35b341561020257600080fd5b61021860048080359060200190919050506106af565b60405180826000191660001916815260200191505060405180910390f35b60003073ffffffffffffffffffffffffffffffffffffffff1631905090565b60006020528060005260406000206000915090508060000160009054906101000a900460ff16908060010154908060020154908060030160009054906101000a900473ffffffffffffffffffffffffffffffffffffffff16908060030160149054906101000a900460ff16905085565b600160009054906101000a900473ffffffffffffffffffffffffffffffffffffffff1673ffffffffffffffffffffffffffffffffffffffff163373ffffffffffffffffffffffffffffffffffffffff16141561035657600160009054906101000a900473ffffffffffffffffffffffffffffffffffffffff1673ffffffffffffffffffffffffffffffffffffffff16ff5b565b6706f05b59d3b200003073ffffffffffffffffffffffffffffffffffffffff1631101580156103d25750600080600083815260200190815260200160002060030160009054906101000a900473ffffffffffffffffffffffffffffffffffffffff1673ffffffffffffffffffffffffffffffffffffffff16115b801561040457506000151560008083815260200190815260200160002060000160009054906101000a900460ff161515145b156104f05760008082815260200190815260200160002060030160009054906101000a900473ffffffffffffffffffffffffffffffffffffffff1673ffffffffffffffffffffffffffffffffffffffff166108fc6706f05b59d3b200009081150290604051600060405180830381858888f19350505050151561048657600080fd5b600260008083815260200190815260200160002060030160146101000a81548160ff021916908360028111156104b857fe5b0217905550600160008083815260200190815260200160002060000160006101000a81548160ff0219169083151502179055506104f5565b600080fd5b50565b600080600085815260200190815260200160002060030160009054906101000a900473ffffffffffffffffffffffffffffffffffffffff1673ffffffffffffffffffffffffffffffffffffffff1611801561055a57506706f05b59d3b2000034105b1561056457600080fd5b60a06040519081016040528060001515815260200183600019168152602001826000191681526020013373ffffffffffffffffffffffffffffffffffffffff168152602001600060028111156105b657fe5b81525060008085815260200190815260200160002060008201518160000160006101000a81548160ff021916908315150217905550602082015181600101906000191690556040820151816002019060001916905560608201518160030160006101000a81548173ffffffffffffffffffffffffffffffffffffffff021916908373ffffffffffffffffffffffffffffffffffffffff16021790555060808201518160030160146101000a81548160ff0219169083600281111561067657fe5b0217905550905050505050565b600080600083815260200190815260200160002060000160009054906101000a900460ff169050919050565b60008060008381526020019081526020016000206001015490509190505600a165627a7a72305820fba5a67a2db0517b4ff338d0a9c6b1f391d2ebfbf30bcbae59372376ec38fbaa0029",
  "source": "pragma solidity ^0.4.4;\n\ncontract Insurance {\n\n    mapping(uint => FlightInsurance) public flights;\n    uint constant AMOUNT_TO_PAY = 500000000000000000;\n    address owner;\n\n    struct FlightInsurance { \n        bool isProcessed;\n        bytes32 arrivalDateTime;\n        bytes32 tripData;\n        address userAddress;\n        FlightState state;\n    }\n    enum FlightState {DEFAULT, ON_TIME, DELAYED}\n\n    function Insurance() public {\n        owner = msg.sender;\n    }\n\n    function addInsurance(uint id, bytes32 date, bytes32 tripData) payable public {\n        if ( flights[id].userAddress > 0 && msg.value < AMOUNT_TO_PAY) {\n            revert();\n        }\n        flights[id] = FlightInsurance({state:FlightState.DEFAULT,\n                                            tripData:tripData,\n                                            userAddress:msg.sender,\n                                            isProcessed:false,\n                                            arrivalDateTime:date\n                                            });\n    }\n\n    function payInsurance(uint id) public {\n        if (this.balance >= AMOUNT_TO_PAY && flights[id].userAddress > 0 && flights[id].isProcessed == false) {\n            flights[id].userAddress.transfer(AMOUNT_TO_PAY);\n            flights[id].state = FlightState.DELAYED;\n            flights[id].isProcessed = true;\n        }else {\n            revert();\n        }\n    }\n    \n    function getBalance() public constant returns (uint) {\n        return this.balance;\n    }\n\n    function getArrivalDate(uint id) public constant returns (bytes32) {\n        return flights[id].arrivalDateTime;\n    }\n\n    function isProcessed(uint id) public constant returns (bool) {\n        return flights[id].isProcessed;\n    }\n\n    function kill () external {\n        if (msg.sender == owner) {\n            selfdestruct(owner);\n        }\n    }\n\n}",
  "sourcePath": "/Users/ricardo/Ethereum/bubi-flight/contracts/Insurance.sol",
  "compiler": {
    "name": "solc",
    "version": "0.4.18+commit.9cf6e910.Emscripten.clang"
  },
  "schemaVersion": "1.0.1",
  "updatedAt": "2017-11-13T18:56:40.758Z"
}